{
    "contractName": "AlienFeeding",
    "abi": [
        {
            "anonymous": false,
            "inputs": [
                {
                    "indexed": false,
                    "internalType": "uint256",
                    "name": "alienId",
                    "type": "uint256"
                },
                {
                    "indexed": false,
                    "internalType": "string",
                    "name": "name",
                    "type": "string"
                },
                {
                    "indexed": false,
                    "internalType": "uint256",
                    "name": "dna",
                    "type": "uint256"
                }
            ],
            "name": "NewAlien",
            "type": "event"
        },
        {
            "anonymous": false,
            "inputs": [
                {
                    "indexed": true,
                    "internalType": "address",
                    "name": "previousOwner",
                    "type": "address"
                },
                {
                    "indexed": true,
                    "internalType": "address",
                    "name": "newOwner",
                    "type": "address"
                }
            ],
            "name": "OwnershipTransferred",
            "type": "event"
        },
        {
            "constant": true,
            "inputs": [
                {
                    "internalType": "uint256",
                    "name": "",
                    "type": "uint256"
                }
            ],
            "name": "alienToOwner",
            "outputs": [
                {
                    "internalType": "address",
                    "name": "",
                    "type": "address"
                }
            ],
            "payable": false,
            "stateMutability": "view",
            "type": "function"
        },
        {
            "constant": true,
            "inputs": [
                {
                    "internalType": "uint256",
                    "name": "",
                    "type": "uint256"
                }
            ],
            "name": "aliens",
            "outputs": [
                {
                    "internalType": "string",
                    "name": "name",
                    "type": "string"
                },
                {
                    "internalType": "uint256",
                    "name": "dna",
                    "type": "uint256"
                },
                {
                    "internalType": "uint32",
                    "name": "level",
                    "type": "uint32"
                },
                {
                    "internalType": "uint32",
                    "name": "readyTime",
                    "type": "uint32"
                },
                {
                    "internalType": "uint16",
                    "name": "winCount",
                    "type": "uint16"
                },
                {
                    "internalType": "uint16",
                    "name": "lossCount",
                    "type": "uint16"
                }
            ],
            "payable": false,
            "stateMutability": "view",
            "type": "function"
        },
        {
            "constant": false,
            "inputs": [
                {
                    "internalType": "string",
                    "name": "_name",
                    "type": "string"
                }
            ],
            "name": "createRandomAlien",
            "outputs": [],
            "payable": false,
            "stateMutability": "nonpayable",
            "type": "function"
        },
        {
            "constant": false,
            "inputs": [
                {
                    "internalType": "uint256",
                    "name": "_alienId",
                    "type": "uint256"
                },
                {
                    "internalType": "uint256",
                    "name": "_kittyId",
                    "type": "uint256"
                }
            ],
            "name": "feedOnKitty",
            "outputs": [],
            "payable": false,
            "stateMutability": "nonpayable",
            "type": "function"
        },
        {
            "constant": true,
            "inputs": [],
            "name": "isOwner",
            "outputs": [
                {
                    "internalType": "bool",
                    "name": "",
                    "type": "bool"
                }
            ],
            "payable": false,
            "stateMutability": "view",
            "type": "function"
        },
        {
            "constant": true,
            "inputs": [],
            "name": "owner",
            "outputs": [
                {
                    "internalType": "address",
                    "name": "",
                    "type": "address"
                }
            ],
            "payable": false,
            "stateMutability": "view",
            "type": "function"
        },
        {
            "constant": false,
            "inputs": [],
            "name": "renounceOwnership",
            "outputs": [],
            "payable": false,
            "stateMutability": "nonpayable",
            "type": "function"
        },
        {
            "constant": false,
            "inputs": [
                {
                    "internalType": "address",
                    "name": "_address",
                    "type": "address"
                }
            ],
            "name": "setKittyContractAddress",
            "outputs": [],
            "payable": false,
            "stateMutability": "nonpayable",
            "type": "function"
        },
        {
            "constant": false,
            "inputs": [
                {
                    "internalType": "address",
                    "name": "newOwner",
                    "type": "address"
                }
            ],
            "name": "transferOwnership",
            "outputs": [],
            "payable": false,
            "stateMutability": "nonpayable",
            "type": "function"
        }
    ],
    "bytecode": "608060408190526010600155662386f26fc1000060025562015180600355600080546001600160a01b03191633178082556001600160a01b0316917f8be0079c531659141344cd1fd0a4f28419497f9722a3daafe3b4186f6b6457e0908290a3610b3c8061006e6000396000f3fe608060405234801561001057600080fd5b50600436106100935760003560e01c80638da5cb5b116100665780638da5cb5b146101245780638f32d59b1461012c5780639d714e8614610148578063ca15fd60146101ee578063f2fde38b146102b757610093565b806317a7f4cc1461009857806350089a2e146100bd5780635f4623f1146100f6578063715018a61461011c575b600080fd5b6100bb600480360360408110156100ae57600080fd5b50803590602001356102dd565b005b6100da600480360360208110156100d357600080fd5b503561038c565b604080516001600160a01b039092168252519081900360200190f35b6100bb6004803603602081101561010c57600080fd5b50356001600160a01b03166103a7565b6100bb6103da565b6100da610435565b610134610445565b604080519115158252519081900360200190f35b6100bb6004803603602081101561015e57600080fd5b81019060208101813564010000000081111561017957600080fd5b82018360208201111561018b57600080fd5b803590602001918460018302840111640100000000831117156101ad57600080fd5b91908080601f016020809104026020016040519081016040528093929190818152602001838380828437600092019190915250929550610456945050505050565b61020b6004803603602081101561020457600080fd5b5035610491565b60408051602080820188905263ffffffff80881693830193909352918516606082015261ffff8085166080830152831660a082015260c080825288519082015287519091829160e08301918a019080838360005b8381101561027757818101518382015260200161025f565b50505050905090810190601f1680156102a45780820380516001836020036101000a031916815260200191505b5097505050505050505060405180910390f35b6100bb600480360360208110156102cd57600080fd5b50356001600160a01b0316610575565b6007546040805163e98b7f4d60e01b81526004810184905290516000926001600160a01b03169163e98b7f4d91602480830192610140929190829003018186803b15801561032a57600080fd5b505afa15801561033e573d6000803e3d6000fd5b505050506040513d61014081101561035557600080fd5b5061012001516040805180820190915260058152646b6974747960d81b60208201529091506103879084908390610592565b505050565b6005602052600090815260409020546001600160a01b031681565b6103af610445565b6103b857600080fd5b600780546001600160a01b0319166001600160a01b0392909216919091179055565b6103e2610445565b6103eb57600080fd5b600080546040516001600160a01b03909116907f8be0079c531659141344cd1fd0a4f28419497f9722a3daafe3b4186f6b6457e0908390a3600080546001600160a01b0319169055565b6000546001600160a01b03165b90565b6000546001600160a01b0316331490565b336000908152600660205260409020541561047057600080fd5b600061047b826106f1565b905060648106900361048d828261077a565b5050565b6004818154811061049e57fe5b60009182526020918290206003919091020180546040805160026001841615610100026000190190931692909204601f8101859004850283018501909152808252919350918391908301828280156105375780601f1061050c57610100808354040283529160200191610537565b820191906000526020600020905b81548152906001019060200180831161051a57829003601f168201915b505050600184015460029094015492939263ffffffff8082169350640100000000820416915061ffff600160401b8204811691600160501b90041686565b61057d610445565b61058657600080fd5b61058f816109a8565b50565b60008381526005602052604090205483906001600160a01b031633146105b757600080fd5b6000600485815481106105c657fe5b906000526020600020906003020190506105df81610a16565b6105e857600080fd5b60025484816105f357fe5b06935060006002858360010154018161060857fe5b0490506040516020018080646b6974747960d81b815250600501905060405160208183030381529060405280519060200120846040516020018082805190602001908083835b6020831061066d5780518252601f19909201916020918201910161064e565b6001836020036101000a0380198251168184511680821785525050505050509050019150506040516020818303038152906040528051906020012014156106b8576064810690036063015b6106e0604051806040016040528060068152602001654e6f4e616d6560d01b8152508261077a565b6106e982610a2f565b505050505050565b600080826040516020018082805190602001908083835b602083106107275780518252601f199092019160209182019101610708565b6001836020036101000a0380198251168184511680821785525050505050509050019150506040516020818303038152906040528051906020012060001c9050600254818161077257fe5b069392505050565b6040805160c0810182528381526020808201849052600192820183905260038054420163ffffffff16606084015260006080840181905260a08401819052600480548087018083559183528551805193979692959294919091027f8a35acfbc15ff81a39ae7d344fd709f28e8600b4aa8c65c6b64bfe7fe36bd19b01926108049284920190610a6f565b50602082810151600183810191909155604080850151600290940180546060870151608088015160a09098015163ffffffff1990921663ffffffff9788161767ffffffff000000001916640100000000918816919091021769ffff00000000000000001916600160401b61ffff988916021761ffff60501b1916600160501b979091169690960295909517909455949093036000818152600585528381208054336001600160a01b031990911681179091558152600690945291909220549093506108d1929091610a5916565b60066000336001600160a01b03166001600160a01b03168152602001908152602001600020819055507f579f53503490b77c105a1f950f9803d651db01ea7b9c5603c76442f09466d7728184846040518084815260200180602001838152602001828103825284818151815260200191508051906020019080838360005b8381101561096757818101518382015260200161094f565b50505050905090810190601f1680156109945780820380516001836020036101000a031916815260200191505b5094505050505060405180910390a1505050565b6001600160a01b0381166109bb57600080fd5b600080546040516001600160a01b03808516939216917f8be0079c531659141344cd1fd0a4f28419497f9722a3daafe3b4186f6b6457e091a3600080546001600160a01b0319166001600160a01b0392909216919091179055565b600201544264010000000090910463ffffffff16111590565b60035442018160020160046101000a81548163ffffffff021916908363ffffffff16021790555050565b600082820183811015610a6857fe5b9392505050565b828054600181600116156101000203166002900490600052602060002090601f016020900481019282601f10610ab057805160ff1916838001178555610add565b82800160010185558215610add579182015b82811115610add578251825591602001919060010190610ac2565b50610ae9929150610aed565b5090565b61044291905b80821115610ae95760008155600101610af356fea265627a7a72315820283b3e1c999ec674b4c8cc0f6a2dbe8cf841c31be1395866bf79a7ada8d46f1c64736f6c63430005110032",
    "sourcePath": "c:/Users/JTStephens/CryptoAliens/contracts/alienfeeding.sol",
    "compiler": {
        "name": "solc",
        "version": "0.5.17+commit.d19bba13"
    },
    "functionHashes": {
        "alienToOwner(uint256)": "50089a2e",
        "aliens(uint256)": "ca15fd60",
        "createRandomAlien(string)": "9d714e86",
        "feedOnKitty(uint256,uint256)": "17a7f4cc",
        "isOwner()": "8f32d59b",
        "owner()": "8da5cb5b",
        "renounceOwnership()": "715018a6",
        "setKittyContractAddress(address)": "5f4623f1",
        "transferOwnership(address)": "f2fde38b"
    },
    "gasEstimates": {
        "creation": {
            "codeDepositCost": "575200",
            "executionCost": "82977",
            "totalCost": "658177"
        },
        "external": {
            "alienToOwner(uint256)": "1168",
            "aliens(uint256)": "infinite",
            "createRandomAlien(string)": "infinite",
            "feedOnKitty(uint256,uint256)": "infinite",
            "isOwner()": "1049",
            "owner()": "1038",
            "renounceOwnership()": "24259",
            "setKittyContractAddress(address)": "21985",
            "transferOwnership(address)": "24446"
        },
        "internal": {
            "_isReady(struct AlienFactory.Alien storage pointer)": "846",
            "_triggerCooldown(struct AlienFactory.Alien storage pointer)": "21739",
            "feedAndMultiply(uint256,uint256,string memory)": "infinite"
        }
    }
}