{
    "contractName": "AlienAttack",
    "abi": [
        {
            "anonymous": false,
            "inputs": [
                {
                    "indexed": false,
                    "internalType": "uint256",
                    "name": "alienId",
                    "type": "uint256"
                },
                {
                    "indexed": false,
                    "internalType": "string",
                    "name": "name",
                    "type": "string"
                },
                {
                    "indexed": false,
                    "internalType": "uint256",
                    "name": "dna",
                    "type": "uint256"
                }
            ],
            "name": "NewAlien",
            "type": "event"
        },
        {
            "anonymous": false,
            "inputs": [
                {
                    "indexed": true,
                    "internalType": "address",
                    "name": "previousOwner",
                    "type": "address"
                },
                {
                    "indexed": true,
                    "internalType": "address",
                    "name": "newOwner",
                    "type": "address"
                }
            ],
            "name": "OwnershipTransferred",
            "type": "event"
        },
        {
            "constant": true,
            "inputs": [
                {
                    "internalType": "uint256",
                    "name": "",
                    "type": "uint256"
                }
            ],
            "name": "alienToOwner",
            "outputs": [
                {
                    "internalType": "address",
                    "name": "",
                    "type": "address"
                }
            ],
            "payable": false,
            "stateMutability": "view",
            "type": "function"
        },
        {
            "constant": true,
            "inputs": [
                {
                    "internalType": "uint256",
                    "name": "",
                    "type": "uint256"
                }
            ],
            "name": "aliens",
            "outputs": [
                {
                    "internalType": "string",
                    "name": "name",
                    "type": "string"
                },
                {
                    "internalType": "uint256",
                    "name": "dna",
                    "type": "uint256"
                },
                {
                    "internalType": "uint32",
                    "name": "level",
                    "type": "uint32"
                },
                {
                    "internalType": "uint32",
                    "name": "readyTime",
                    "type": "uint32"
                },
                {
                    "internalType": "uint16",
                    "name": "winCount",
                    "type": "uint16"
                },
                {
                    "internalType": "uint16",
                    "name": "lossCount",
                    "type": "uint16"
                }
            ],
            "payable": false,
            "stateMutability": "view",
            "type": "function"
        },
        {
            "constant": false,
            "inputs": [
                {
                    "internalType": "uint256",
                    "name": "_alienId",
                    "type": "uint256"
                },
                {
                    "internalType": "uint256",
                    "name": "_targetId",
                    "type": "uint256"
                }
            ],
            "name": "attack",
            "outputs": [],
            "payable": false,
            "stateMutability": "nonpayable",
            "type": "function"
        },
        {
            "constant": false,
            "inputs": [
                {
                    "internalType": "uint256",
                    "name": "_alienId",
                    "type": "uint256"
                },
                {
                    "internalType": "uint256",
                    "name": "_newDna",
                    "type": "uint256"
                }
            ],
            "name": "changeDna",
            "outputs": [],
            "payable": false,
            "stateMutability": "nonpayable",
            "type": "function"
        },
        {
            "constant": false,
            "inputs": [
                {
                    "internalType": "uint256",
                    "name": "_alienId",
                    "type": "uint256"
                },
                {
                    "internalType": "string",
                    "name": "_newName",
                    "type": "string"
                }
            ],
            "name": "changeName",
            "outputs": [],
            "payable": false,
            "stateMutability": "nonpayable",
            "type": "function"
        },
        {
            "constant": false,
            "inputs": [
                {
                    "internalType": "string",
                    "name": "_name",
                    "type": "string"
                }
            ],
            "name": "createRandomAlien",
            "outputs": [],
            "payable": false,
            "stateMutability": "nonpayable",
            "type": "function"
        },
        {
            "constant": false,
            "inputs": [
                {
                    "internalType": "uint256",
                    "name": "_alienId",
                    "type": "uint256"
                },
                {
                    "internalType": "uint256",
                    "name": "_kittyId",
                    "type": "uint256"
                }
            ],
            "name": "feedOnKitty",
            "outputs": [],
            "payable": false,
            "stateMutability": "nonpayable",
            "type": "function"
        },
        {
            "constant": true,
            "inputs": [
                {
                    "internalType": "address",
                    "name": "_owner",
                    "type": "address"
                }
            ],
            "name": "getAliensByOwner",
            "outputs": [
                {
                    "internalType": "uint256[]",
                    "name": "",
                    "type": "uint256[]"
                }
            ],
            "payable": false,
            "stateMutability": "view",
            "type": "function"
        },
        {
            "constant": true,
            "inputs": [],
            "name": "isOwner",
            "outputs": [
                {
                    "internalType": "bool",
                    "name": "",
                    "type": "bool"
                }
            ],
            "payable": false,
            "stateMutability": "view",
            "type": "function"
        },
        {
            "constant": true,
            "inputs": [],
            "name": "owner",
            "outputs": [
                {
                    "internalType": "address",
                    "name": "",
                    "type": "address"
                }
            ],
            "payable": false,
            "stateMutability": "view",
            "type": "function"
        },
        {
            "constant": false,
            "inputs": [],
            "name": "renounceOwnership",
            "outputs": [],
            "payable": false,
            "stateMutability": "nonpayable",
            "type": "function"
        },
        {
            "constant": false,
            "inputs": [
                {
                    "internalType": "address",
                    "name": "_address",
                    "type": "address"
                }
            ],
            "name": "setKittyContractAddress",
            "outputs": [],
            "payable": false,
            "stateMutability": "nonpayable",
            "type": "function"
        },
        {
            "constant": false,
            "inputs": [
                {
                    "internalType": "address",
                    "name": "newOwner",
                    "type": "address"
                }
            ],
            "name": "transferOwnership",
            "outputs": [],
            "payable": false,
            "stateMutability": "nonpayable",
            "type": "function"
        }
    ],
    "bytecode": "608060408190526010600155662386f26fc100006002556201518060035566038d7ea4c68000600855600060098190556046600a5580546001600160a01b03191633178082556001600160a01b0316917f8be0079c531659141344cd1fd0a4f28419497f9722a3daafe3b4186f6b6457e0908290a3611122806100836000396000f3fe608060405234801561001057600080fd5b50600436106100cf5760003560e01c80638da5cb5b1161008c578063c39cbef111610066578063c39cbef1146102c1578063ca15fd6014610336578063e1fa7638146103ff578063f2fde38b14610422576100cf565b80638da5cb5b146101f95780638f32d59b146102015780639d714e861461021d576100cf565b806317a7f4cc146100d4578063217f80b3146100f957806350089a2e1461016f5780635f4623f1146101a85780635faf2880146101ce578063715018a6146101f1575b600080fd5b6100f7600480360360408110156100ea57600080fd5b5080359060200135610448565b005b61011f6004803603602081101561010f57600080fd5b50356001600160a01b03166104f7565b60408051602080825283518183015283519192839290830191858101910280838360005b8381101561015b578181015183820152602001610143565b505050509050019250505060405180910390f35b61018c6004803603602081101561018557600080fd5b50356105ac565b604080516001600160a01b039092168252519081900360200190f35b6100f7600480360360208110156101be57600080fd5b50356001600160a01b03166105c7565b6100f7600480360360408110156101e457600080fd5b50803590602001356105fa565b6100f761067f565b61018c6106da565b6102096106ea565b604080519115158252519081900360200190f35b6100f76004803603602081101561023357600080fd5b810190602081018135600160201b81111561024d57600080fd5b82018360208201111561025f57600080fd5b803590602001918460018302840111600160201b8311171561028057600080fd5b91908080601f0160208091040260200160405190810160405280939291908181526020018383808284376000920191909152509295506106fb945050505050565b6100f7600480360360408110156102d757600080fd5b81359190810190604081016020820135600160201b8111156102f857600080fd5b82018360208201111561030a57600080fd5b803590602001918460018302840111600160201b8311171561032b57600080fd5b509092509050610736565b6103536004803603602081101561034c57600080fd5b50356107c3565b60408051602080820188905263ffffffff80881693830193909352918516606082015261ffff8085166080830152831660a082015260c080825288519082015287519091829160e08301918a019080838360005b838110156103bf5781810151838201526020016103a7565b50505050905090810190601f1680156103ec5780820380516001836020036101000a031916815260200191505b5097505050505050505060405180910390f35b6100f76004803603604081101561041557600080fd5b50803590602001356108a6565b6100f76004803603602081101561043857600080fd5b50356001600160a01b0316610a7a565b6007546040805163e98b7f4d60e01b81526004810184905290516000926001600160a01b03169163e98b7f4d91602480830192610140929190829003018186803b15801561049557600080fd5b505afa1580156104a9573d6000803e3d6000fd5b505050506040513d6101408110156104c057600080fd5b5061012001516040805180820190915260058152646b6974747960d81b60208201529091506104f29084908390610a97565b505050565b60608060066000846001600160a01b03166001600160a01b0316815260200190815260200160002054604051908082528060200260200182016040528015610549578160200160208202803883390190505b5090506000805b6004548110156105a3576000818152600560205260409020546001600160a01b038681169116141561059b578083838151811061058957fe5b60209081029190910101526001909101905b600101610550565b50909392505050565b6005602052600090815260409020546001600160a01b031681565b6105cf6106ea565b6105d857600080fd5b600780546001600160a01b0319166001600160a01b0392909216919091179055565b601482816004828154811061060b57fe5b600091825260209091206002600390920201015463ffffffff16101561063057600080fd5b60008481526005602052604090205484906001600160a01b0316331461065557600080fd5b836004868154811061066357fe5b9060005260206000209060030201600101819055505050505050565b6106876106ea565b61069057600080fd5b600080546040516001600160a01b03909116907f8be0079c531659141344cd1fd0a4f28419497f9722a3daafe3b4186f6b6457e0908390a3600080546001600160a01b0319169055565b6000546001600160a01b03165b90565b6000546001600160a01b0316331490565b336000908152600660205260409020541561071557600080fd5b600061072082610bee565b90506064810690036107328282610c77565b5050565b600283816004828154811061074757fe5b600091825260209091206002600390920201015463ffffffff16101561076c57600080fd5b60008581526005602052604090205485906001600160a01b0316331461079157600080fd5b8484600488815481106107a057fe5b600091825260209091206107ba9360039092020191610fe7565b50505050505050565b600481815481106107d057fe5b60009182526020918290206003919091020180546040805160026001841615610100026000190190931692909204601f8101859004850283018501909152808252919350918391908301828280156108695780601f1061083e57610100808354040283529160200191610869565b820191906000526020600020905b81548152906001019060200180831161084c57829003601f168201915b505050600184015460029094015492939263ffffffff8082169350600160201b820416915061ffff600160401b8204811691600160501b90041686565b60008281526005602052604090205482906001600160a01b031633146108cb57600080fd5b6000600484815481106108da57fe5b906000526020600020906003020190506000600484815481106108f957fe5b9060005260206000209060030201905060006109156064610e9f565b9050600a5481116109fb57600283015461093b90600160401b900461ffff166001610ef3565b60028401805461ffff92909216600160401b0261ffff60401b1990921691909117908190556109769063ffffffff90811690600190610f1016565b6002848101805463ffffffff191663ffffffff9384161790558301546109ac91600160501b90910461ffff1690600190610ef316565b82600201600a6101000a81548161ffff021916908361ffff1602179055506109f68683600101546040518060400160405280600581526020016420b634b2b760d91b815250610a97565b610a72565b6002830154610a1690600160501b900461ffff166001610ef3565b6002848101805461ffff60501b1916600160501b61ffff94851602179055830154610a4b91600160401b909104166001610ef3565b8260020160086101000a81548161ffff021916908361ffff160217905550610a7283610f28565b505050505050565b610a826106ea565b610a8b57600080fd5b610a9481610f52565b50565b60008381526005602052604090205483906001600160a01b03163314610abc57600080fd5b600060048581548110610acb57fe5b90600052602060002090600302019050610ae481610fc0565b610aed57600080fd5b6002548481610af857fe5b069350600060028583600101540181610b0d57fe5b0490506040516020018080646b6974747960d81b815250600501905060405160208183030381529060405280519060200120846040516020018082805190602001908083835b60208310610b725780518252601f199092019160209182019101610b53565b6001836020036101000a038019825116818451168082178552505050505050905001915050604051602081830303815290604052805190602001201415610bbd576064810690036063015b610be5604051806040016040528060068152602001654e6f4e616d6560d01b81525082610c77565b610a7282610f28565b600080826040516020018082805190602001908083835b60208310610c245780518252601f199092019160209182019101610c05565b6001836020036101000a0380198251168184511680821785525050505050509050019150506040516020818303038152906040528051906020012060001c90506002548181610c6f57fe5b069392505050565b6040805160c0810182528381526020808201849052600192820183905260038054420163ffffffff16606084015260006080840181905260a08401819052600480548087018083559183528551805193979692959294919091027f8a35acfbc15ff81a39ae7d344fd709f28e8600b4aa8c65c6b64bfe7fe36bd19b0192610d019284920190611065565b50602082810151600183810191909155604080850151600290940180546060870151608088015160a09098015163ffffffff1990921663ffffffff9788161767ffffffff000000001916600160201b918816919091021761ffff60401b1916600160401b61ffff988916021761ffff60501b1916600160501b979091169690960295909517909455949093036000818152600585528381208054336001600160a01b03199091168117909155815260069094529190922054909350610dc8929091610fd816565b60066000336001600160a01b03166001600160a01b03168152602001908152602001600020819055507f579f53503490b77c105a1f950f9803d651db01ea7b9c5603c76442f09466d7728184846040518084815260200180602001838152602001828103825284818151815260200191508051906020019080838360005b83811015610e5e578181015183820152602001610e46565b50505050905090810190601f168015610e8b5780820380516001836020036101000a031916815260200191505b5094505050505060405180910390a1505050565b600980546001019081905560408051426020808301919091523360601b828401526054808301949094528251808303909401845260749091019091528151910120600090829081610eec57fe5b0692915050565b600082820161ffff8085169082161015610f0957fe5b9392505050565b600082820163ffffffff8085169082161015610f0957fe5b60035442018160020160046101000a81548163ffffffff021916908363ffffffff16021790555050565b6001600160a01b038116610f6557600080fd5b600080546040516001600160a01b03808516939216917f8be0079c531659141344cd1fd0a4f28419497f9722a3daafe3b4186f6b6457e091a3600080546001600160a01b0319166001600160a01b0392909216919091179055565b6002015442600160201b90910463ffffffff16111590565b600082820183811015610f0957fe5b828054600181600116156101000203166002900490600052602060002090601f016020900481019282601f106110285782800160ff19823516178555611055565b82800160010185558215611055579182015b8281111561105557823582559160200191906001019061103a565b506110619291506110d3565b5090565b828054600181600116156101000203166002900490600052602060002090601f016020900481019282601f106110a657805160ff1916838001178555611055565b82800160010185558215611055579182015b828111156110555782518255916020019190600101906110b8565b6106e791905b8082111561106157600081556001016110d956fea265627a7a723158202c139f1ae90ef327533e838acd59f8c2cb9113e13abd6229f8afa4331cbbe60764736f6c63430005110032",
    "sourcePath": "c:/Users/JTStephens/CryptoAliens/contracts/alienattack.sol",
    "compiler": {
        "name": "solc",
        "version": "0.5.17+commit.d19bba13"
    },
    "functionHashes": {
        "alienToOwner(uint256)": "50089a2e",
        "aliens(uint256)": "ca15fd60",
        "attack(uint256,uint256)": "e1fa7638",
        "changeDna(uint256,uint256)": "5faf2880",
        "changeName(uint256,string)": "c39cbef1",
        "createRandomAlien(string)": "9d714e86",
        "feedOnKitty(uint256,uint256)": "17a7f4cc",
        "getAliensByOwner(address)": "217f80b3",
        "isOwner()": "8f32d59b",
        "owner()": "8da5cb5b",
        "renounceOwnership()": "715018a6",
        "setKittyContractAddress(address)": "5f4623f1",
        "transferOwnership(address)": "f2fde38b"
    },
    "gasEstimates": {
        "creation": {
            "codeDepositCost": "877200",
            "executionCost": "128308",
            "totalCost": "1005508"
        },
        "external": {
            "alienToOwner(uint256)": "1190",
            "aliens(uint256)": "infinite",
            "attack(uint256,uint256)": "infinite",
            "changeDna(uint256,uint256)": "23867",
            "changeName(uint256,string)": "infinite",
            "createRandomAlien(string)": "infinite",
            "feedOnKitty(uint256,uint256)": "infinite",
            "getAliensByOwner(address)": "infinite",
            "isOwner()": "1072",
            "owner()": "1061",
            "renounceOwnership()": "24303",
            "setKittyContractAddress(address)": "22007",
            "transferOwnership(address)": "24446"
        },
        "internal": {
            "randMod(uint256)": "infinite"
        }
    }
}