{
    "contractName": "AlienOwnership",
    "abi": [
        {
            "anonymous": false,
            "inputs": [
                {
                    "indexed": true,
                    "internalType": "address",
                    "name": "_owner",
                    "type": "address"
                },
                {
                    "indexed": true,
                    "internalType": "address",
                    "name": "_approved",
                    "type": "address"
                },
                {
                    "indexed": true,
                    "internalType": "uint256",
                    "name": "_tokenId",
                    "type": "uint256"
                }
            ],
            "name": "Approval",
            "type": "event"
        },
        {
            "anonymous": false,
            "inputs": [
                {
                    "indexed": false,
                    "internalType": "uint256",
                    "name": "alienId",
                    "type": "uint256"
                },
                {
                    "indexed": false,
                    "internalType": "string",
                    "name": "name",
                    "type": "string"
                },
                {
                    "indexed": false,
                    "internalType": "uint256",
                    "name": "dna",
                    "type": "uint256"
                }
            ],
            "name": "NewAlien",
            "type": "event"
        },
        {
            "anonymous": false,
            "inputs": [
                {
                    "indexed": true,
                    "internalType": "address",
                    "name": "previousOwner",
                    "type": "address"
                },
                {
                    "indexed": true,
                    "internalType": "address",
                    "name": "newOwner",
                    "type": "address"
                }
            ],
            "name": "OwnershipTransferred",
            "type": "event"
        },
        {
            "anonymous": false,
            "inputs": [
                {
                    "indexed": true,
                    "internalType": "address",
                    "name": "_from",
                    "type": "address"
                },
                {
                    "indexed": true,
                    "internalType": "address",
                    "name": "_to",
                    "type": "address"
                },
                {
                    "indexed": true,
                    "internalType": "uint256",
                    "name": "_tokenId",
                    "type": "uint256"
                }
            ],
            "name": "Transfer",
            "type": "event"
        },
        {
            "constant": true,
            "inputs": [
                {
                    "internalType": "uint256",
                    "name": "",
                    "type": "uint256"
                }
            ],
            "name": "alienToOwner",
            "outputs": [
                {
                    "internalType": "address",
                    "name": "",
                    "type": "address"
                }
            ],
            "payable": false,
            "stateMutability": "view",
            "type": "function"
        },
        {
            "constant": true,
            "inputs": [
                {
                    "internalType": "uint256",
                    "name": "",
                    "type": "uint256"
                }
            ],
            "name": "aliens",
            "outputs": [
                {
                    "internalType": "string",
                    "name": "name",
                    "type": "string"
                },
                {
                    "internalType": "uint256",
                    "name": "dna",
                    "type": "uint256"
                },
                {
                    "internalType": "uint32",
                    "name": "level",
                    "type": "uint32"
                },
                {
                    "internalType": "uint32",
                    "name": "readyTime",
                    "type": "uint32"
                },
                {
                    "internalType": "uint16",
                    "name": "winCount",
                    "type": "uint16"
                },
                {
                    "internalType": "uint16",
                    "name": "lossCount",
                    "type": "uint16"
                }
            ],
            "payable": false,
            "stateMutability": "view",
            "type": "function"
        },
        {
            "constant": false,
            "inputs": [
                {
                    "internalType": "address",
                    "name": "_approved",
                    "type": "address"
                },
                {
                    "internalType": "uint256",
                    "name": "_tokenId",
                    "type": "uint256"
                }
            ],
            "name": "approve",
            "outputs": [],
            "payable": true,
            "stateMutability": "payable",
            "type": "function"
        },
        {
            "constant": false,
            "inputs": [
                {
                    "internalType": "uint256",
                    "name": "_alienId",
                    "type": "uint256"
                },
                {
                    "internalType": "uint256",
                    "name": "_targetId",
                    "type": "uint256"
                }
            ],
            "name": "attack",
            "outputs": [],
            "payable": false,
            "stateMutability": "nonpayable",
            "type": "function"
        },
        {
            "constant": true,
            "inputs": [
                {
                    "internalType": "address",
                    "name": "_owner",
                    "type": "address"
                }
            ],
            "name": "balanceOf",
            "outputs": [
                {
                    "internalType": "uint256",
                    "name": "",
                    "type": "uint256"
                }
            ],
            "payable": false,
            "stateMutability": "view",
            "type": "function"
        },
        {
            "constant": false,
            "inputs": [
                {
                    "internalType": "uint256",
                    "name": "_alienId",
                    "type": "uint256"
                },
                {
                    "internalType": "uint256",
                    "name": "_newDna",
                    "type": "uint256"
                }
            ],
            "name": "changeDna",
            "outputs": [],
            "payable": false,
            "stateMutability": "nonpayable",
            "type": "function"
        },
        {
            "constant": false,
            "inputs": [
                {
                    "internalType": "uint256",
                    "name": "_alienId",
                    "type": "uint256"
                },
                {
                    "internalType": "string",
                    "name": "_newName",
                    "type": "string"
                }
            ],
            "name": "changeName",
            "outputs": [],
            "payable": false,
            "stateMutability": "nonpayable",
            "type": "function"
        },
        {
            "constant": false,
            "inputs": [
                {
                    "internalType": "string",
                    "name": "_name",
                    "type": "string"
                }
            ],
            "name": "createRandomAlien",
            "outputs": [],
            "payable": false,
            "stateMutability": "nonpayable",
            "type": "function"
        },
        {
            "constant": false,
            "inputs": [
                {
                    "internalType": "uint256",
                    "name": "_alienId",
                    "type": "uint256"
                },
                {
                    "internalType": "uint256",
                    "name": "_kittyId",
                    "type": "uint256"
                }
            ],
            "name": "feedOnKitty",
            "outputs": [],
            "payable": false,
            "stateMutability": "nonpayable",
            "type": "function"
        },
        {
            "constant": true,
            "inputs": [
                {
                    "internalType": "address",
                    "name": "_owner",
                    "type": "address"
                }
            ],
            "name": "getAliensByOwner",
            "outputs": [
                {
                    "internalType": "uint256[]",
                    "name": "",
                    "type": "uint256[]"
                }
            ],
            "payable": false,
            "stateMutability": "view",
            "type": "function"
        },
        {
            "constant": true,
            "inputs": [],
            "name": "isOwner",
            "outputs": [
                {
                    "internalType": "bool",
                    "name": "",
                    "type": "bool"
                }
            ],
            "payable": false,
            "stateMutability": "view",
            "type": "function"
        },
        {
            "constant": true,
            "inputs": [],
            "name": "owner",
            "outputs": [
                {
                    "internalType": "address",
                    "name": "",
                    "type": "address"
                }
            ],
            "payable": false,
            "stateMutability": "view",
            "type": "function"
        },
        {
            "constant": true,
            "inputs": [
                {
                    "internalType": "uint256",
                    "name": "_tokenId",
                    "type": "uint256"
                }
            ],
            "name": "ownerOf",
            "outputs": [
                {
                    "internalType": "address",
                    "name": "",
                    "type": "address"
                }
            ],
            "payable": false,
            "stateMutability": "view",
            "type": "function"
        },
        {
            "constant": false,
            "inputs": [],
            "name": "renounceOwnership",
            "outputs": [],
            "payable": false,
            "stateMutability": "nonpayable",
            "type": "function"
        },
        {
            "constant": false,
            "inputs": [
                {
                    "internalType": "address",
                    "name": "_address",
                    "type": "address"
                }
            ],
            "name": "setKittyContractAddress",
            "outputs": [],
            "payable": false,
            "stateMutability": "nonpayable",
            "type": "function"
        },
        {
            "constant": false,
            "inputs": [
                {
                    "internalType": "address",
                    "name": "_from",
                    "type": "address"
                },
                {
                    "internalType": "address",
                    "name": "_to",
                    "type": "address"
                },
                {
                    "internalType": "uint256",
                    "name": "_tokenId",
                    "type": "uint256"
                }
            ],
            "name": "transferFrom",
            "outputs": [],
            "payable": true,
            "stateMutability": "payable",
            "type": "function"
        },
        {
            "constant": false,
            "inputs": [
                {
                    "internalType": "address",
                    "name": "newOwner",
                    "type": "address"
                }
            ],
            "name": "transferOwnership",
            "outputs": [],
            "payable": false,
            "stateMutability": "nonpayable",
            "type": "function"
        }
    ],
    "bytecode": "608060408190526010600155662386f26fc100006002556201518060035566038d7ea4c68000600855600060098190556046600a5580546001600160a01b03191633178082556001600160a01b0316917f8be0079c531659141344cd1fd0a4f28419497f9722a3daafe3b4186f6b6457e0908290a361149e806100836000396000f3fe6080604052600436106100fe5760003560e01c806370a08231116100955780639d714e86116100645780639d714e8614610385578063c39cbef114610436578063ca15fd60146104b8578063e1fa76381461058e578063f2fde38b146105be576100fe565b806370a08231146102ed578063715018a6146103325780638da5cb5b146103475780638f32d59b1461035c576100fe565b806350089a2e116100d157806350089a2e1461021a5780635f4623f1146102605780635faf2880146102935780636352211e146102c3576100fe565b8063095ea7b31461010357806317a7f4cc14610131578063217f80b31461016157806323b872dd146101e4575b600080fd5b61012f6004803603604081101561011957600080fd5b506001600160a01b0381351690602001356105f1565b005b34801561013d57600080fd5b5061012f6004803603604081101561015457600080fd5b5080359060200135610670565b34801561016d57600080fd5b506101946004803603602081101561018457600080fd5b50356001600160a01b031661071f565b60408051602080825283518183015283519192839290830191858101910280838360005b838110156101d05781810151838201526020016101b8565b505050509050019250505060405180910390f35b61012f600480360360608110156101fa57600080fd5b506001600160a01b038135811691602081013590911690604001356107d4565b34801561022657600080fd5b506102446004803603602081101561023d57600080fd5b5035610823565b604080516001600160a01b039092168252519081900360200190f35b34801561026c57600080fd5b5061012f6004803603602081101561028357600080fd5b50356001600160a01b031661083e565b34801561029f57600080fd5b5061012f600480360360408110156102b657600080fd5b5080359060200135610871565b3480156102cf57600080fd5b50610244600480360360208110156102e657600080fd5b50356108f6565b3480156102f957600080fd5b506103206004803603602081101561031057600080fd5b50356001600160a01b0316610903565b60408051918252519081900360200190f35b34801561033e57600080fd5b5061012f61091e565b34801561035357600080fd5b50610244610979565b34801561036857600080fd5b50610371610989565b604080519115158252519081900360200190f35b34801561039157600080fd5b5061012f600480360360208110156103a857600080fd5b810190602081018135600160201b8111156103c257600080fd5b8201836020820111156103d457600080fd5b803590602001918460018302840111600160201b831117156103f557600080fd5b91908080601f01602080910402602001604051908101604052809392919081815260200183838082843760009201919091525092955061099a945050505050565b34801561044257600080fd5b5061012f6004803603604081101561045957600080fd5b81359190810190604081016020820135600160201b81111561047a57600080fd5b82018360208201111561048c57600080fd5b803590602001918460018302840111600160201b831117156104ad57600080fd5b5090925090506109d5565b3480156104c457600080fd5b506104e2600480360360208110156104db57600080fd5b5035610a62565b60408051602080820188905263ffffffff80881693830193909352918516606082015261ffff8085166080830152831660a082015260c080825288519082015287519091829160e08301918a019080838360005b8381101561054e578181015183820152602001610536565b50505050905090810190601f16801561057b5780820380516001836020036101000a031916815260200191505b5097505050505050505060405180910390f35b34801561059a57600080fd5b5061012f600480360360408110156105b157600080fd5b5080359060200135610b45565b3480156105ca57600080fd5b5061012f600480360360208110156105e157600080fd5b50356001600160a01b0316610d19565b60008181526005602052604090205481906001600160a01b0316331461061657600080fd5b6000828152600b602052604080822080546001600160a01b0319166001600160a01b0387169081179091559051849233917f8c5be1e5ebec7d5bd14f71427d1e84f3dd0314c0f7b2291e5b200ac8c7c3b9259190a4505050565b6007546040805163e98b7f4d60e01b81526004810184905290516000926001600160a01b03169163e98b7f4d91602480830192610140929190829003018186803b1580156106bd57600080fd5b505afa1580156106d1573d6000803e3d6000fd5b505050506040513d6101408110156106e857600080fd5b5061012001516040805180820190915260058152646b6974747960d81b602082015290915061071a9084908390610d36565b505050565b60608060066000846001600160a01b03166001600160a01b0316815260200190815260200160002054604051908082528060200260200182016040528015610771578160200160208202803883390190505b5090506000805b6004548110156107cb576000818152600560205260409020546001600160a01b03868116911614156107c357808383815181106107b157fe5b60209081029190910101526001909101905b600101610778565b50909392505050565b6000818152600560205260409020546001600160a01b031633148061080f57506000818152600b60205260409020546001600160a01b031633145b61081857600080fd5b61071a838383610e8d565b6005602052600090815260409020546001600160a01b031681565b610846610989565b61084f57600080fd5b600780546001600160a01b0319166001600160a01b0392909216919091179055565b601482816004828154811061088257fe5b600091825260209091206002600390920201015463ffffffff1610156108a757600080fd5b60008481526005602052604090205484906001600160a01b031633146108cc57600080fd5b83600486815481106108da57fe5b9060005260206000209060030201600101819055505050505050565b6000908152600560205290565b6001600160a01b031660009081526006602052604090205490565b610926610989565b61092f57600080fd5b600080546040516001600160a01b03909116907f8be0079c531659141344cd1fd0a4f28419497f9722a3daafe3b4186f6b6457e0908390a3600080546001600160a01b0319169055565b6000546001600160a01b03165b90565b6000546001600160a01b0316331490565b33600090815260066020526040902054156109b457600080fd5b60006109bf82610f58565b90506064810690036109d18282610fe1565b5050565b60028381600482815481106109e657fe5b600091825260209091206002600390920201015463ffffffff161015610a0b57600080fd5b60008581526005602052604090205485906001600160a01b03163314610a3057600080fd5b848460048881548110610a3f57fe5b60009182526020909120610a599360039092020191611363565b50505050505050565b60048181548110610a6f57fe5b60009182526020918290206003919091020180546040805160026001841615610100026000190190931692909204601f810185900485028301850190915280825291935091839190830182828015610b085780601f10610add57610100808354040283529160200191610b08565b820191906000526020600020905b815481529060010190602001808311610aeb57829003601f168201915b505050600184015460029094015492939263ffffffff8082169350600160201b820416915061ffff600160401b8204811691600160501b90041686565b60008281526005602052604090205482906001600160a01b03163314610b6a57600080fd5b600060048481548110610b7957fe5b90600052602060002090600302019050600060048481548110610b9857fe5b906000526020600020906003020190506000610bb46064611209565b9050600a548111610c9a576002830154610bda90600160401b900461ffff16600161125d565b60028401805461ffff92909216600160401b0261ffff60401b199092169190911790819055610c159063ffffffff9081169060019061127a16565b6002848101805463ffffffff191663ffffffff938416179055830154610c4b91600160501b90910461ffff169060019061125d16565b82600201600a6101000a81548161ffff021916908361ffff160217905550610c958683600101546040518060400160405280600581526020016420b634b2b760d91b815250610d36565b610d11565b6002830154610cb590600160501b900461ffff16600161125d565b6002848101805461ffff60501b1916600160501b61ffff94851602179055830154610cea91600160401b90910416600161125d565b8260020160086101000a81548161ffff021916908361ffff160217905550610d1183611292565b505050505050565b610d21610989565b610d2a57600080fd5b610d33816112bc565b50565b60008381526005602052604090205483906001600160a01b03163314610d5b57600080fd5b600060048581548110610d6a57fe5b90600052602060002090600302019050610d838161132a565b610d8c57600080fd5b6002548481610d9757fe5b069350600060028583600101540181610dac57fe5b0490506040516020018080646b6974747960d81b815250600501905060405160208183030381529060405280519060200120846040516020018082805190602001908083835b60208310610e115780518252601f199092019160209182019101610df2565b6001836020036101000a038019825116818451168082178552505050505050905001915050604051602081830303815290604052805190602001201415610e5c576064810690036063015b610e84604051806040016040528060068152602001654e6f4e616d6560d01b81525082610fe1565b610d1182611292565b6001600160a01b038216600090815260066020526040902054610eb790600163ffffffff61134216565b6001600160a01b038316600090815260066020526040808220929092553381522054610eea90600163ffffffff61135116565b336000908152600660209081526040808320939093558382526005905281812080546001600160a01b0319166001600160a01b038681169182179092559251849392918716917fddf252ad1be2c89b69c2b068fc378daa952ba7f163c4a11628f55a4df523b3ef91a4505050565b600080826040516020018082805190602001908083835b60208310610f8e5780518252601f199092019160209182019101610f6f565b6001836020036101000a0380198251168184511680821785525050505050509050019150506040516020818303038152906040528051906020012060001c90506002548181610fd957fe5b069392505050565b6040805160c0810182528381526020808201849052600192820183905260038054420163ffffffff16606084015260006080840181905260a08401819052600480548087018083559183528551805193979692959294919091027f8a35acfbc15ff81a39ae7d344fd709f28e8600b4aa8c65c6b64bfe7fe36bd19b019261106b92849201906113e1565b50602082810151600183810191909155604080850151600290940180546060870151608088015160a09098015163ffffffff1990921663ffffffff9788161767ffffffff000000001916600160201b918816919091021761ffff60401b1916600160401b61ffff988916021761ffff60501b1916600160501b979091169690960295909517909455949093036000818152600585528381208054336001600160a01b0319909116811790915581526006909452919092205490935061113292909161134216565b60066000336001600160a01b03166001600160a01b03168152602001908152602001600020819055507f579f53503490b77c105a1f950f9803d651db01ea7b9c5603c76442f09466d7728184846040518084815260200180602001838152602001828103825284818151815260200191508051906020019080838360005b838110156111c85781810151838201526020016111b0565b50505050905090810190601f1680156111f55780820380516001836020036101000a031916815260200191505b5094505050505060405180910390a1505050565b600980546001019081905560408051426020808301919091523360601b82840152605480830194909452825180830390940184526074909101909152815191012060009082908161125657fe5b0692915050565b600082820161ffff808516908216101561127357fe5b9392505050565b600082820163ffffffff808516908216101561127357fe5b60035442018160020160046101000a81548163ffffffff021916908363ffffffff16021790555050565b6001600160a01b0381166112cf57600080fd5b600080546040516001600160a01b03808516939216917f8be0079c531659141344cd1fd0a4f28419497f9722a3daafe3b4186f6b6457e091a3600080546001600160a01b0319166001600160a01b0392909216919091179055565b6002015442600160201b90910463ffffffff16111590565b60008282018381101561127357fe5b60008282111561135d57fe5b50900390565b828054600181600116156101000203166002900490600052602060002090601f016020900481019282601f106113a45782800160ff198235161785556113d1565b828001600101855582156113d1579182015b828111156113d15782358255916020019190600101906113b6565b506113dd92915061144f565b5090565b828054600181600116156101000203166002900490600052602060002090601f016020900481019282601f1061142257805160ff19168380011785556113d1565b828001600101855582156113d1579182015b828111156113d1578251825591602001919060010190611434565b61098691905b808211156113dd576000815560010161145556fea265627a7a7231582032dd2eeb94a65304bc9e5d2f23d9a0facaac5d6863afdd1f13af48a2b6db837164736f6c63430005110032",
    "sourcePath": "c:/Users/JTStephens/CryptoAliens/contracts/alienownership.sol",
    "compiler": {
        "name": "solc",
        "version": "0.5.17+commit.d19bba13"
    },
    "functionHashes": {
        "alienToOwner(uint256)": "50089a2e",
        "aliens(uint256)": "ca15fd60",
        "approve(address,uint256)": "095ea7b3",
        "attack(uint256,uint256)": "e1fa7638",
        "balanceOf(address)": "70a08231",
        "changeDna(uint256,uint256)": "5faf2880",
        "changeName(uint256,string)": "c39cbef1",
        "createRandomAlien(string)": "9d714e86",
        "feedOnKitty(uint256,uint256)": "17a7f4cc",
        "getAliensByOwner(address)": "217f80b3",
        "isOwner()": "8f32d59b",
        "owner()": "8da5cb5b",
        "ownerOf(uint256)": "6352211e",
        "renounceOwnership()": "715018a6",
        "setKittyContractAddress(address)": "5f4623f1",
        "transferFrom(address,address,uint256)": "23b872dd",
        "transferOwnership(address)": "f2fde38b"
    },
    "gasEstimates": {
        "creation": {
            "codeDepositCost": "1055600",
            "executionCost": "128486",
            "totalCost": "1184086"
        },
        "external": {
            "alienToOwner(uint256)": "1168",
            "aliens(uint256)": "infinite",
            "approve(address,uint256)": "23970",
            "attack(uint256,uint256)": "infinite",
            "balanceOf(address)": "1165",
            "changeDna(uint256,uint256)": "23845",
            "changeName(uint256,string)": "infinite",
            "createRandomAlien(string)": "infinite",
            "feedOnKitty(uint256,uint256)": "infinite",
            "getAliensByOwner(address)": "infinite",
            "isOwner()": "1116",
            "owner()": "1105",
            "ownerOf(uint256)": "368",
            "renounceOwnership()": "24237",
            "setKittyContractAddress(address)": "21985",
            "transferFrom(address,address,uint256)": "infinite",
            "transferOwnership(address)": "24468"
        },
        "internal": {
            "_transfer(address,address,uint256)": "infinite"
        }
    }
}