{
    "contractName": "AlienFactory",
    "abi": [
        {
            "anonymous": false,
            "inputs": [
                {
                    "indexed": false,
                    "internalType": "uint256",
                    "name": "alienId",
                    "type": "uint256"
                },
                {
                    "indexed": false,
                    "internalType": "string",
                    "name": "name",
                    "type": "string"
                },
                {
                    "indexed": false,
                    "internalType": "uint256",
                    "name": "dna",
                    "type": "uint256"
                }
            ],
            "name": "NewAlien",
            "type": "event"
        },
        {
            "anonymous": false,
            "inputs": [
                {
                    "indexed": true,
                    "internalType": "address",
                    "name": "previousOwner",
                    "type": "address"
                },
                {
                    "indexed": true,
                    "internalType": "address",
                    "name": "newOwner",
                    "type": "address"
                }
            ],
            "name": "OwnershipTransferred",
            "type": "event"
        },
        {
            "constant": true,
            "inputs": [
                {
                    "internalType": "uint256",
                    "name": "",
                    "type": "uint256"
                }
            ],
            "name": "alienToOwner",
            "outputs": [
                {
                    "internalType": "address",
                    "name": "",
                    "type": "address"
                }
            ],
            "payable": false,
            "stateMutability": "view",
            "type": "function"
        },
        {
            "constant": true,
            "inputs": [
                {
                    "internalType": "uint256",
                    "name": "",
                    "type": "uint256"
                }
            ],
            "name": "aliens",
            "outputs": [
                {
                    "internalType": "string",
                    "name": "name",
                    "type": "string"
                },
                {
                    "internalType": "uint256",
                    "name": "dna",
                    "type": "uint256"
                },
                {
                    "internalType": "uint32",
                    "name": "level",
                    "type": "uint32"
                },
                {
                    "internalType": "uint32",
                    "name": "readyTime",
                    "type": "uint32"
                },
                {
                    "internalType": "uint16",
                    "name": "winCount",
                    "type": "uint16"
                },
                {
                    "internalType": "uint16",
                    "name": "lossCount",
                    "type": "uint16"
                }
            ],
            "payable": false,
            "stateMutability": "view",
            "type": "function"
        },
        {
            "constant": false,
            "inputs": [
                {
                    "internalType": "string",
                    "name": "_name",
                    "type": "string"
                }
            ],
            "name": "createRandomAlien",
            "outputs": [],
            "payable": false,
            "stateMutability": "nonpayable",
            "type": "function"
        },
        {
            "constant": true,
            "inputs": [],
            "name": "isOwner",
            "outputs": [
                {
                    "internalType": "bool",
                    "name": "",
                    "type": "bool"
                }
            ],
            "payable": false,
            "stateMutability": "view",
            "type": "function"
        },
        {
            "constant": true,
            "inputs": [],
            "name": "owner",
            "outputs": [
                {
                    "internalType": "address",
                    "name": "",
                    "type": "address"
                }
            ],
            "payable": false,
            "stateMutability": "view",
            "type": "function"
        },
        {
            "constant": false,
            "inputs": [],
            "name": "renounceOwnership",
            "outputs": [],
            "payable": false,
            "stateMutability": "nonpayable",
            "type": "function"
        },
        {
            "constant": false,
            "inputs": [
                {
                    "internalType": "address",
                    "name": "newOwner",
                    "type": "address"
                }
            ],
            "name": "transferOwnership",
            "outputs": [],
            "payable": false,
            "stateMutability": "nonpayable",
            "type": "function"
        }
    ],
    "bytecode": "608060408190526010600155662386f26fc1000060025562015180600355600080546001600160a01b03191633178082556001600160a01b0316917f8be0079c531659141344cd1fd0a4f28419497f9722a3daafe3b4186f6b6457e0908290a36108598061006e6000396000f3fe608060405234801561001057600080fd5b506004361061007d5760003560e01c80638f32d59b1161005b5780638f32d59b146100cd5780639d714e86146100e9578063ca15fd601461018f578063f2fde38b146102585761007d565b806350089a2e14610082578063715018a6146100bb5780638da5cb5b146100c5575b600080fd5b61009f6004803603602081101561009857600080fd5b503561027e565b604080516001600160a01b039092168252519081900360200190f35b6100c3610299565b005b61009f6102f4565b6100d5610304565b604080519115158252519081900360200190f35b6100c3600480360360208110156100ff57600080fd5b81019060208101813564010000000081111561011a57600080fd5b82018360208201111561012c57600080fd5b8035906020019184600183028401116401000000008311171561014e57600080fd5b91908080601f016020809104026020016040519081016040528093929190818152602001838380828437600092019190915250929550610315945050505050565b6101ac600480360360208110156101a557600080fd5b5035610350565b60408051602080820188905263ffffffff80881693830193909352918516606082015261ffff8085166080830152831660a082015260c080825288519082015287519091829160e08301918a019080838360005b83811015610218578181015183820152602001610200565b50505050905090810190601f1680156102455780820380516001836020036101000a031916815260200191505b5097505050505050505060405180910390f35b6100c36004803603602081101561026e57600080fd5b50356001600160a01b0316610434565b6005602052600090815260409020546001600160a01b031681565b6102a1610304565b6102aa57600080fd5b600080546040516001600160a01b03909116907f8be0079c531659141344cd1fd0a4f28419497f9722a3daafe3b4186f6b6457e0908390a3600080546001600160a01b0319169055565b6000546001600160a01b03165b90565b6000546001600160a01b0316331490565b336000908152600660205260409020541561032f57600080fd5b600061033a82610451565b905060648106900361034c82826104da565b5050565b6004818154811061035d57fe5b60009182526020918290206003919091020180546040805160026001841615610100026000190190931692909204601f8101859004850283018501909152808252919350918391908301828280156103f65780601f106103cb576101008083540402835291602001916103f6565b820191906000526020600020905b8154815290600101906020018083116103d957829003601f168201915b505050600184015460029094015492939263ffffffff8082169350640100000000820416915061ffff600160401b8204811691600160501b90041686565b61043c610304565b61044557600080fd5b61044e81610708565b50565b600080826040516020018082805190602001908083835b602083106104875780518252601f199092019160209182019101610468565b6001836020036101000a0380198251168184511680821785525050505050509050019150506040516020818303038152906040528051906020012060001c905060025481816104d257fe5b069392505050565b6040805160c0810182528381526020808201849052600192820183905260038054420163ffffffff16606084015260006080840181905260a08401819052600480548087018083559183528551805193979692959294919091027f8a35acfbc15ff81a39ae7d344fd709f28e8600b4aa8c65c6b64bfe7fe36bd19b0192610564928492019061078c565b50602082810151600183810191909155604080850151600290940180546060870151608088015160a09098015163ffffffff1990921663ffffffff9788161767ffffffff000000001916640100000000918816919091021769ffff00000000000000001916600160401b61ffff988916021761ffff60501b1916600160501b979091169690960295909517909455949093036000818152600585528381208054336001600160a01b0319909116811790915581526006909452919092205490935061063192909161077616565b60066000336001600160a01b03166001600160a01b03168152602001908152602001600020819055507f579f53503490b77c105a1f950f9803d651db01ea7b9c5603c76442f09466d7728184846040518084815260200180602001838152602001828103825284818151815260200191508051906020019080838360005b838110156106c75781810151838201526020016106af565b50505050905090810190601f1680156106f45780820380516001836020036101000a031916815260200191505b5094505050505060405180910390a1505050565b6001600160a01b03811661071b57600080fd5b600080546040516001600160a01b03808516939216917f8be0079c531659141344cd1fd0a4f28419497f9722a3daafe3b4186f6b6457e091a3600080546001600160a01b0319166001600160a01b0392909216919091179055565b60008282018381101561078557fe5b9392505050565b828054600181600116156101000203166002900490600052602060002090601f016020900481019282601f106107cd57805160ff19168380011785556107fa565b828001600101855582156107fa579182015b828111156107fa5782518255916020019190600101906107df565b5061080692915061080a565b5090565b61030191905b80821115610806576000815560010161081056fea265627a7a7231582082f4c43ee0c8eecbefed9612bffa5f5599c288ac82835bf4615cbfbf13affea364736f6c63430005110032",
    "sourcePath": "c:/Users/JTStephens/CryptoAliens/contracts/alienfactory.sol",
    "compiler": {
        "name": "solc",
        "version": "0.5.17+commit.d19bba13"
    },
    "functionHashes": {
        "alienToOwner(uint256)": "50089a2e",
        "aliens(uint256)": "ca15fd60",
        "createRandomAlien(string)": "9d714e86",
        "isOwner()": "8f32d59b",
        "owner()": "8da5cb5b",
        "renounceOwnership()": "715018a6",
        "transferOwnership(address)": "f2fde38b"
    },
    "gasEstimates": {
        "creation": {
            "codeDepositCost": "427400",
            "executionCost": "82832",
            "totalCost": "510232"
        },
        "external": {
            "alienToOwner(uint256)": "1146",
            "aliens(uint256)": "infinite",
            "createRandomAlien(string)": "infinite",
            "isOwner()": "1027",
            "owner()": "1083",
            "renounceOwnership()": "24215",
            "transferOwnership(address)": "24424"
        },
        "internal": {
            "_createAlien(string memory,uint256)": "infinite",
            "_generateRandomDna(string memory)": "infinite"
        }
    }
}