{
    "contractName": "AlienHelper",
    "abi": [
        {
            "anonymous": false,
            "inputs": [
                {
                    "indexed": false,
                    "internalType": "uint256",
                    "name": "alienId",
                    "type": "uint256"
                },
                {
                    "indexed": false,
                    "internalType": "string",
                    "name": "name",
                    "type": "string"
                },
                {
                    "indexed": false,
                    "internalType": "uint256",
                    "name": "dna",
                    "type": "uint256"
                }
            ],
            "name": "NewAlien",
            "type": "event"
        },
        {
            "anonymous": false,
            "inputs": [
                {
                    "indexed": true,
                    "internalType": "address",
                    "name": "previousOwner",
                    "type": "address"
                },
                {
                    "indexed": true,
                    "internalType": "address",
                    "name": "newOwner",
                    "type": "address"
                }
            ],
            "name": "OwnershipTransferred",
            "type": "event"
        },
        {
            "constant": true,
            "inputs": [
                {
                    "internalType": "uint256",
                    "name": "",
                    "type": "uint256"
                }
            ],
            "name": "alienToOwner",
            "outputs": [
                {
                    "internalType": "address",
                    "name": "",
                    "type": "address"
                }
            ],
            "payable": false,
            "stateMutability": "view",
            "type": "function"
        },
        {
            "constant": true,
            "inputs": [
                {
                    "internalType": "uint256",
                    "name": "",
                    "type": "uint256"
                }
            ],
            "name": "aliens",
            "outputs": [
                {
                    "internalType": "string",
                    "name": "name",
                    "type": "string"
                },
                {
                    "internalType": "uint256",
                    "name": "dna",
                    "type": "uint256"
                },
                {
                    "internalType": "uint32",
                    "name": "level",
                    "type": "uint32"
                },
                {
                    "internalType": "uint32",
                    "name": "readyTime",
                    "type": "uint32"
                },
                {
                    "internalType": "uint16",
                    "name": "winCount",
                    "type": "uint16"
                },
                {
                    "internalType": "uint16",
                    "name": "lossCount",
                    "type": "uint16"
                }
            ],
            "payable": false,
            "stateMutability": "view",
            "type": "function"
        },
        {
            "constant": false,
            "inputs": [
                {
                    "internalType": "uint256",
                    "name": "_alienId",
                    "type": "uint256"
                },
                {
                    "internalType": "uint256",
                    "name": "_newDna",
                    "type": "uint256"
                }
            ],
            "name": "changeDna",
            "outputs": [],
            "payable": false,
            "stateMutability": "nonpayable",
            "type": "function"
        },
        {
            "constant": false,
            "inputs": [
                {
                    "internalType": "uint256",
                    "name": "_alienId",
                    "type": "uint256"
                },
                {
                    "internalType": "string",
                    "name": "_newName",
                    "type": "string"
                }
            ],
            "name": "changeName",
            "outputs": [],
            "payable": false,
            "stateMutability": "nonpayable",
            "type": "function"
        },
        {
            "constant": false,
            "inputs": [
                {
                    "internalType": "string",
                    "name": "_name",
                    "type": "string"
                }
            ],
            "name": "createRandomAlien",
            "outputs": [],
            "payable": false,
            "stateMutability": "nonpayable",
            "type": "function"
        },
        {
            "constant": false,
            "inputs": [
                {
                    "internalType": "uint256",
                    "name": "_alienId",
                    "type": "uint256"
                },
                {
                    "internalType": "uint256",
                    "name": "_kittyId",
                    "type": "uint256"
                }
            ],
            "name": "feedOnKitty",
            "outputs": [],
            "payable": false,
            "stateMutability": "nonpayable",
            "type": "function"
        },
        {
            "constant": true,
            "inputs": [
                {
                    "internalType": "address",
                    "name": "_owner",
                    "type": "address"
                }
            ],
            "name": "getAliensByOwner",
            "outputs": [
                {
                    "internalType": "uint256[]",
                    "name": "",
                    "type": "uint256[]"
                }
            ],
            "payable": false,
            "stateMutability": "view",
            "type": "function"
        },
        {
            "constant": true,
            "inputs": [],
            "name": "isOwner",
            "outputs": [
                {
                    "internalType": "bool",
                    "name": "",
                    "type": "bool"
                }
            ],
            "payable": false,
            "stateMutability": "view",
            "type": "function"
        },
        {
            "constant": true,
            "inputs": [],
            "name": "owner",
            "outputs": [
                {
                    "internalType": "address",
                    "name": "",
                    "type": "address"
                }
            ],
            "payable": false,
            "stateMutability": "view",
            "type": "function"
        },
        {
            "constant": false,
            "inputs": [],
            "name": "renounceOwnership",
            "outputs": [],
            "payable": false,
            "stateMutability": "nonpayable",
            "type": "function"
        },
        {
            "constant": false,
            "inputs": [
                {
                    "internalType": "address",
                    "name": "_address",
                    "type": "address"
                }
            ],
            "name": "setKittyContractAddress",
            "outputs": [],
            "payable": false,
            "stateMutability": "nonpayable",
            "type": "function"
        },
        {
            "constant": false,
            "inputs": [
                {
                    "internalType": "address",
                    "name": "newOwner",
                    "type": "address"
                }
            ],
            "name": "transferOwnership",
            "outputs": [],
            "payable": false,
            "stateMutability": "nonpayable",
            "type": "function"
        }
    ],
    "bytecode": "608060408190526010600155662386f26fc100006002556201518060035566038d7ea4c68000600855600080546001600160a01b03191633178082556001600160a01b0316917f8be0079c531659141344cd1fd0a4f28419497f9722a3daafe3b4186f6b6457e0908290a3610e9b806100796000396000f3fe608060405234801561001057600080fd5b50600436106100b45760003560e01c80638da5cb5b116100715780638da5cb5b146101de5780638f32d59b146101e65780639d714e8614610202578063c39cbef1146102a6578063ca15fd601461031b578063f2fde38b146103e4576100b4565b806317a7f4cc146100b9578063217f80b3146100de57806350089a2e146101545780635f4623f11461018d5780635faf2880146101b3578063715018a6146101d6575b600080fd5b6100dc600480360360408110156100cf57600080fd5b508035906020013561040a565b005b610104600480360360208110156100f457600080fd5b50356001600160a01b03166104b9565b60408051602080825283518183015283519192839290830191858101910280838360005b83811015610140578181015183820152602001610128565b505050509050019250505060405180910390f35b6101716004803603602081101561016a57600080fd5b503561056e565b604080516001600160a01b039092168252519081900360200190f35b6100dc600480360360208110156101a357600080fd5b50356001600160a01b0316610589565b6100dc600480360360408110156101c957600080fd5b50803590602001356105bc565b6100dc610641565b61017161069c565b6101ee6106ac565b604080519115158252519081900360200190f35b6100dc6004803603602081101561021857600080fd5b810190602081018135600160201b81111561023257600080fd5b82018360208201111561024457600080fd5b803590602001918460018302840111600160201b8311171561026557600080fd5b91908080601f0160208091040260200160405190810160405280939291908181526020018383808284376000920191909152509295506106bd945050505050565b6100dc600480360360408110156102bc57600080fd5b81359190810190604081016020820135600160201b8111156102dd57600080fd5b8201836020820111156102ef57600080fd5b803590602001918460018302840111600160201b8311171561031057600080fd5b5090925090506106f8565b6103386004803603602081101561033157600080fd5b5035610785565b60408051602080820188905263ffffffff80881693830193909352918516606082015261ffff8085166080830152831660a082015260c080825288519082015287519091829160e08301918a019080838360005b838110156103a457818101518382015260200161038c565b50505050905090810190601f1680156103d15780820380516001836020036101000a031916815260200191505b5097505050505050505060405180910390f35b6100dc600480360360208110156103fa57600080fd5b50356001600160a01b0316610868565b6007546040805163e98b7f4d60e01b81526004810184905290516000926001600160a01b03169163e98b7f4d91602480830192610140929190829003018186803b15801561045757600080fd5b505afa15801561046b573d6000803e3d6000fd5b505050506040513d61014081101561048257600080fd5b5061012001516040805180820190915260058152646b6974747960d81b60208201529091506104b49084908390610885565b505050565b60608060066000846001600160a01b03166001600160a01b031681526020019081526020016000205460405190808252806020026020018201604052801561050b578160200160208202803883390190505b5090506000805b600454811015610565576000818152600560205260409020546001600160a01b038681169116141561055d578083838151811061054b57fe5b60209081029190910101526001909101905b600101610512565b50909392505050565b6005602052600090815260409020546001600160a01b031681565b6105916106ac565b61059a57600080fd5b600780546001600160a01b0319166001600160a01b0392909216919091179055565b60148281600482815481106105cd57fe5b600091825260209091206002600390920201015463ffffffff1610156105f257600080fd5b60008481526005602052604090205484906001600160a01b0316331461061757600080fd5b836004868154811061062557fe5b9060005260206000209060030201600101819055505050505050565b6106496106ac565b61065257600080fd5b600080546040516001600160a01b03909116907f8be0079c531659141344cd1fd0a4f28419497f9722a3daafe3b4186f6b6457e0908390a3600080546001600160a01b0319169055565b6000546001600160a01b03165b90565b6000546001600160a01b0316331490565b33600090815260066020526040902054156106d757600080fd5b60006106e2826109e4565b90506064810690036106f48282610a6d565b5050565b600283816004828154811061070957fe5b600091825260209091206002600390920201015463ffffffff16101561072e57600080fd5b60008581526005602052604090205485906001600160a01b0316331461075357600080fd5b84846004888154811061076257fe5b6000918252602090912061077c9360039092020191610d60565b50505050505050565b6004818154811061079257fe5b60009182526020918290206003919091020180546040805160026001841615610100026000190190931692909204601f81018590048502830185019091528082529193509183919083018282801561082b5780601f106108005761010080835404028352916020019161082b565b820191906000526020600020905b81548152906001019060200180831161080e57829003601f168201915b505050600184015460029094015492939263ffffffff8082169350600160201b820416915061ffff600160401b8204811691600160501b90041686565b6108706106ac565b61087957600080fd5b61088281610c9a565b50565b60008381526005602052604090205483906001600160a01b031633146108aa57600080fd5b6000600485815481106108b957fe5b906000526020600020906003020190506108d281610d08565b6108db57600080fd5b60025484816108e657fe5b0693506000600285836001015401816108fb57fe5b0490506040516020018080646b6974747960d81b815250600501905060405160208183030381529060405280519060200120846040516020018082805190602001908083835b602083106109605780518252601f199092019160209182019101610941565b6001836020036101000a0380198251168184511680821785525050505050509050019150506040516020818303038152906040528051906020012014156109ab576064810690036063015b6109d3604051806040016040528060068152602001654e6f4e616d6560d01b81525082610a6d565b6109dc82610d20565b505050505050565b600080826040516020018082805190602001908083835b60208310610a1a5780518252601f1990920191602091820191016109fb565b6001836020036101000a0380198251168184511680821785525050505050509050019150506040516020818303038152906040528051906020012060001c90506002548181610a6557fe5b069392505050565b6040805160c0810182528381526020808201849052600192820183905260038054420163ffffffff16606084015260006080840181905260a08401819052600480548087018083559183528551805193979692959294919091027f8a35acfbc15ff81a39ae7d344fd709f28e8600b4aa8c65c6b64bfe7fe36bd19b0192610af79284920190610dde565b50602082810151600183810191909155604080850151600290940180546060870151608088015160a09098015163ffffffff1990921663ffffffff9788161767ffffffff000000001916600160201b918816919091021769ffff00000000000000001916600160401b61ffff988916021761ffff60501b1916600160501b979091169690960295909517909455949093036000818152600585528381208054336001600160a01b03199091168117909155815260069094529190922054909350610bc3929091610d4a16565b60066000336001600160a01b03166001600160a01b03168152602001908152602001600020819055507f579f53503490b77c105a1f950f9803d651db01ea7b9c5603c76442f09466d7728184846040518084815260200180602001838152602001828103825284818151815260200191508051906020019080838360005b83811015610c59578181015183820152602001610c41565b50505050905090810190601f168015610c865780820380516001836020036101000a031916815260200191505b5094505050505060405180910390a1505050565b6001600160a01b038116610cad57600080fd5b600080546040516001600160a01b03808516939216917f8be0079c531659141344cd1fd0a4f28419497f9722a3daafe3b4186f6b6457e091a3600080546001600160a01b0319166001600160a01b0392909216919091179055565b6002015442600160201b90910463ffffffff16111590565b60035442018160020160046101000a81548163ffffffff021916908363ffffffff16021790555050565b600082820183811015610d5957fe5b9392505050565b828054600181600116156101000203166002900490600052602060002090601f016020900481019282601f10610da15782800160ff19823516178555610dce565b82800160010185558215610dce579182015b82811115610dce578235825591602001919060010190610db3565b50610dda929150610e4c565b5090565b828054600181600116156101000203166002900490600052602060002090601f016020900481019282601f10610e1f57805160ff1916838001178555610dce565b82800160010185558215610dce579182015b82811115610dce578251825591602001919060010190610e31565b6106a991905b80821115610dda5760008155600101610e5256fea265627a7a72315820b61391bfe0d24c4ef9baaa4392e434f111b25a83ed344b0ae357cb927b83a53664736f6c63430005110032",
    "sourcePath": "c:/Users/JTStephens/CryptoAliens/contracts/alienhelper.sol",
    "compiler": {
        "name": "solc",
        "version": "0.5.17+commit.d19bba13"
    },
    "functionHashes": {
        "alienToOwner(uint256)": "50089a2e",
        "aliens(uint256)": "ca15fd60",
        "changeDna(uint256,uint256)": "5faf2880",
        "changeName(uint256,string)": "c39cbef1",
        "createRandomAlien(string)": "9d714e86",
        "feedOnKitty(uint256,uint256)": "17a7f4cc",
        "getAliensByOwner(address)": "217f80b3",
        "isOwner()": "8f32d59b",
        "owner()": "8da5cb5b",
        "renounceOwnership()": "715018a6",
        "setKittyContractAddress(address)": "5f4623f1",
        "transferOwnership(address)": "f2fde38b"
    },
    "gasEstimates": {
        "creation": {
            "codeDepositCost": "747800",
            "executionCost": "103156",
            "totalCost": "850956"
        },
        "external": {
            "alienToOwner(uint256)": "1190",
            "aliens(uint256)": "infinite",
            "changeDna(uint256,uint256)": "23867",
            "changeName(uint256,string)": "infinite",
            "createRandomAlien(string)": "infinite",
            "feedOnKitty(uint256,uint256)": "infinite",
            "getAliensByOwner(address)": "infinite",
            "isOwner()": "1049",
            "owner()": "1038",
            "renounceOwnership()": "24303",
            "setKittyContractAddress(address)": "22007",
            "transferOwnership(address)": "24468"
        }
    }
}